{
  "_format": "hh-sol-artifact-1",
  "contractName": "KYCRegistry",
  "sourceName": "contracts/sdk/KYCRegistry.sol",
  "abi": [
    {
      "inputs": [],
      "stateMutability": "nonpayable",
      "type": "constructor"
    },
    {
      "inputs": [
        {
          "internalType": "address",
          "name": "user",
          "type": "address"
        }
      ],
      "name": "AddressAlreadyVerified",
      "type": "error"
    },
    {
      "inputs": [
        {
          "internalType": "address",
          "name": "target",
          "type": "address"
        }
      ],
      "name": "AddressEmptyCode",
      "type": "error"
    },
    {
      "inputs": [
        {
          "internalType": "address",
          "name": "user",
          "type": "address"
        }
      ],
      "name": "AddressNotVerified",
      "type": "error"
    },
    {
      "inputs": [
        {
          "internalType": "address",
          "name": "implementation",
          "type": "address"
        }
      ],
      "name": "ERC1967InvalidImplementation",
      "type": "error"
    },
    {
      "inputs": [],
      "name": "ERC1967NonPayable",
      "type": "error"
    },
    {
      "inputs": [],
      "name": "FailedCall",
      "type": "error"
    },
    {
      "inputs": [
        {
          "internalType": "uint256",
          "name": "provided",
          "type": "uint256"
        },
        {
          "internalType": "uint256",
          "name": "minimum",
          "type": "uint256"
        }
      ],
      "name": "InsufficientKYCTerm",
      "type": "error"
    },
    {
      "inputs": [
        {
          "internalType": "uint256",
          "name": "parsedTimestamp",
          "type": "uint256"
        },
        {
          "internalType": "uint256",
          "name": "currentTimestamp",
          "type": "uint256"
        }
      ],
      "name": "InvalidDate",
      "type": "error"
    },
    {
      "inputs": [
        {
          "internalType": "uint256",
          "name": "parsedTimestamp",
          "type": "uint256"
        },
        {
          "internalType": "uint256",
          "name": "currentTimestamp",
          "type": "uint256"
        }
      ],
      "name": "InvalidDate",
      "type": "error"
    },
    {
      "inputs": [],
      "name": "InvalidInitialization",
      "type": "error"
    },
    {
      "inputs": [
        {
          "internalType": "bytes32[]",
          "name": "pubSignals",
          "type": "bytes32[]"
        },
        {
          "internalType": "bytes",
          "name": "zkPoints",
          "type": "bytes"
        }
      ],
      "name": "InvalidNoirProof",
      "type": "error"
    },
    {
      "inputs": [],
      "name": "NotInitializing",
      "type": "error"
    },
    {
      "inputs": [
        {
          "internalType": "address",
          "name": "owner",
          "type": "address"
        }
      ],
      "name": "OwnableInvalidOwner",
      "type": "error"
    },
    {
      "inputs": [
        {
          "internalType": "address",
          "name": "account",
          "type": "address"
        }
      ],
      "name": "OwnableUnauthorizedAccount",
      "type": "error"
    },
    {
      "inputs": [
        {
          "internalType": "bytes32",
          "name": "passportKey",
          "type": "bytes32"
        },
        {
          "internalType": "address",
          "name": "user",
          "type": "address"
        }
      ],
      "name": "PassportAlreadyAddedToAddress",
      "type": "error"
    },
    {
      "inputs": [
        {
          "internalType": "bytes32",
          "name": "passportKey",
          "type": "bytes32"
        },
        {
          "internalType": "address",
          "name": "boundAddress",
          "type": "address"
        }
      ],
      "name": "PassportAlreadyBound",
      "type": "error"
    },
    {
      "inputs": [
        {
          "internalType": "bytes32",
          "name": "passportKey",
          "type": "bytes32"
        },
        {
          "internalType": "address",
          "name": "user",
          "type": "address"
        }
      ],
      "name": "PassportNotFound",
      "type": "error"
    },
    {
      "inputs": [],
      "name": "ReentrancyGuardReentrantCall",
      "type": "error"
    },
    {
      "inputs": [],
      "name": "UUPSUnauthorizedCallContext",
      "type": "error"
    },
    {
      "inputs": [
        {
          "internalType": "bytes32",
          "name": "slot",
          "type": "bytes32"
        }
      ],
      "name": "UUPSUnsupportedProxiableUUID",
      "type": "error"
    },
    {
      "anonymous": false,
      "inputs": [
        {
          "indexed": true,
          "internalType": "uint256",
          "name": "newMask",
          "type": "uint256"
        }
      ],
      "name": "CitizenshipMaskUpdated",
      "type": "event"
    },
    {
      "anonymous": false,
      "inputs": [
        {
          "indexed": false,
          "internalType": "uint64",
          "name": "version",
          "type": "uint64"
        }
      ],
      "name": "Initialized",
      "type": "event"
    },
    {
      "anonymous": false,
      "inputs": [
        {
          "indexed": true,
          "internalType": "uint256",
          "name": "newMinKycTerm",
          "type": "uint256"
        }
      ],
      "name": "MinKycTermUpdated",
      "type": "event"
    },
    {
      "anonymous": false,
      "inputs": [
        {
          "indexed": true,
          "internalType": "address",
          "name": "previousOwner",
          "type": "address"
        },
        {
          "indexed": true,
          "internalType": "address",
          "name": "newOwner",
          "type": "address"
        }
      ],
      "name": "OwnershipTransferStarted",
      "type": "event"
    },
    {
      "anonymous": false,
      "inputs": [
        {
          "indexed": true,
          "internalType": "address",
          "name": "previousOwner",
          "type": "address"
        },
        {
          "indexed": true,
          "internalType": "address",
          "name": "newOwner",
          "type": "address"
        }
      ],
      "name": "OwnershipTransferred",
      "type": "event"
    },
    {
      "anonymous": false,
      "inputs": [
        {
          "indexed": true,
          "internalType": "address",
          "name": "user",
          "type": "address"
        },
        {
          "indexed": true,
          "internalType": "bytes32",
          "name": "oldPassportKey",
          "type": "bytes32"
        },
        {
          "indexed": true,
          "internalType": "bytes32",
          "name": "newPassportKey",
          "type": "bytes32"
        },
        {
          "indexed": false,
          "internalType": "uint256",
          "name": "timestamp",
          "type": "uint256"
        }
      ],
      "name": "PassportUpdated",
      "type": "event"
    },
    {
      "anonymous": false,
      "inputs": [
        {
          "indexed": true,
          "internalType": "uint256",
          "name": "newSelector",
          "type": "uint256"
        }
      ],
      "name": "SelectorUpdated",
      "type": "event"
    },
    {
      "anonymous": false,
      "inputs": [
        {
          "indexed": true,
          "internalType": "address",
          "name": "stateKeeper",
          "type": "address"
        }
      ],
      "name": "StateKeeperUpdated",
      "type": "event"
    },
    {
      "anonymous": false,
      "inputs": [
        {
          "indexed": true,
          "internalType": "address",
          "name": "implementation",
          "type": "address"
        }
      ],
      "name": "Upgraded",
      "type": "event"
    },
    {
      "anonymous": false,
      "inputs": [
        {
          "indexed": true,
          "internalType": "address",
          "name": "user",
          "type": "address"
        },
        {
          "indexed": true,
          "internalType": "bytes32",
          "name": "passportKey",
          "type": "bytes32"
        },
        {
          "indexed": false,
          "internalType": "uint256",
          "name": "timestamp",
          "type": "uint256"
        }
      ],
      "name": "ZKKYCRevoked",
      "type": "event"
    },
    {
      "anonymous": false,
      "inputs": [
        {
          "indexed": true,
          "internalType": "address",
          "name": "user",
          "type": "address"
        },
        {
          "indexed": true,
          "internalType": "bytes32",
          "name": "passportKey",
          "type": "bytes32"
        },
        {
          "indexed": false,
          "internalType": "uint256",
          "name": "timestamp",
          "type": "uint256"
        }
      ],
      "name": "ZKKYCVerified",
      "type": "event"
    },
    {
      "inputs": [],
      "name": "UPGRADE_INTERFACE_VERSION",
      "outputs": [
        {
          "internalType": "string",
          "name": "",
          "type": "string"
        }
      ],
      "stateMutability": "view",
      "type": "function"
    },
    {
      "inputs": [],
      "name": "acceptOwnership",
      "outputs": [],
      "stateMutability": "nonpayable",
      "type": "function"
    },
    {
      "inputs": [],
      "name": "citizenshipMask",
      "outputs": [
        {
          "internalType": "uint256",
          "name": "",
          "type": "uint256"
        }
      ],
      "stateMutability": "view",
      "type": "function"
    },
    {
      "inputs": [
        {
          "internalType": "uint256",
          "name": "currentDate_",
          "type": "uint256"
        },
        {
          "internalType": "bytes",
          "name": "userPayload_",
          "type": "bytes"
        },
        {
          "internalType": "bytes",
          "name": "zkPoints_",
          "type": "bytes"
        }
      ],
      "name": "executeNoir",
      "outputs": [],
      "stateMutability": "nonpayable",
      "type": "function"
    },
    {
      "inputs": [
        {
          "internalType": "uint256",
          "name": "currentDate_",
          "type": "uint256"
        },
        {
          "internalType": "bytes",
          "name": "userPayload_",
          "type": "bytes"
        },
        {
          "internalType": "bytes",
          "name": "zkPoints_",
          "type": "bytes"
        }
      ],
      "name": "executeTD1Noir",
      "outputs": [],
      "stateMutability": "nonpayable",
      "type": "function"
    },
    {
      "inputs": [
        {
          "internalType": "bytes32",
          "name": "passportKey_",
          "type": "bytes32"
        }
      ],
      "name": "getAddressForPassport",
      "outputs": [
        {
          "internalType": "address",
          "name": "",
          "type": "address"
        }
      ],
      "stateMutability": "view",
      "type": "function"
    },
    {
      "inputs": [
        {
          "internalType": "address",
          "name": "user_",
          "type": "address"
        }
      ],
      "name": "getAllZKKYCData",
      "outputs": [
        {
          "internalType": "bytes32[]",
          "name": "passportKeys",
          "type": "bytes32[]"
        },
        {
          "components": [
            {
              "internalType": "bytes32",
              "name": "passportKey",
              "type": "bytes32"
            },
            {
              "internalType": "uint256",
              "name": "minExpirationDate",
              "type": "uint256"
            },
            {
              "internalType": "uint64",
              "name": "verifiedAt",
              "type": "uint64"
            }
          ],
          "internalType": "struct KYCRegistry.ZKKYCData[]",
          "name": "kycDataArray",
          "type": "tuple[]"
        }
      ],
      "stateMutability": "view",
      "type": "function"
    },
    {
      "inputs": [
        {
          "internalType": "address",
          "name": "user",
          "type": "address"
        }
      ],
      "name": "getEventId",
      "outputs": [
        {
          "internalType": "uint256",
          "name": "",
          "type": "uint256"
        }
      ],
      "stateMutability": "view",
      "type": "function"
    },
    {
      "inputs": [
        {
          "internalType": "uint256",
          "name": "currentDate_",
          "type": "uint256"
        },
        {
          "internalType": "bytes",
          "name": "userPayload_",
          "type": "bytes"
        }
      ],
      "name": "getPublicSignals",
      "outputs": [
        {
          "internalType": "bytes32[]",
          "name": "publicSignals",
          "type": "bytes32[]"
        }
      ],
      "stateMutability": "view",
      "type": "function"
    },
    {
      "inputs": [
        {
          "internalType": "uint256",
          "name": "currentDate_",
          "type": "uint256"
        },
        {
          "internalType": "bytes",
          "name": "userPayload_",
          "type": "bytes"
        }
      ],
      "name": "getPublicSignalsTD1",
      "outputs": [
        {
          "internalType": "bytes32[]",
          "name": "publicSignals",
          "type": "bytes32[]"
        }
      ],
      "stateMutability": "view",
      "type": "function"
    },
    {
      "inputs": [
        {
          "internalType": "address",
          "name": "user_",
          "type": "address"
        }
      ],
      "name": "getUserPassports",
      "outputs": [
        {
          "internalType": "bytes32[]",
          "name": "",
          "type": "bytes32[]"
        }
      ],
      "stateMutability": "view",
      "type": "function"
    },
    {
      "inputs": [],
      "name": "getVerifierTD1",
      "outputs": [
        {
          "internalType": "address",
          "name": "",
          "type": "address"
        }
      ],
      "stateMutability": "view",
      "type": "function"
    },
    {
      "inputs": [],
      "name": "getVerifierTD3",
      "outputs": [
        {
          "internalType": "address",
          "name": "",
          "type": "address"
        }
      ],
      "stateMutability": "view",
      "type": "function"
    },
    {
      "inputs": [
        {
          "internalType": "address",
          "name": "user_",
          "type": "address"
        },
        {
          "internalType": "bytes32",
          "name": "passportKey_",
          "type": "bytes32"
        }
      ],
      "name": "getZKKYCStatus",
      "outputs": [
        {
          "internalType": "bool",
          "name": "isVerified",
          "type": "bool"
        },
        {
          "components": [
            {
              "internalType": "bytes32",
              "name": "passportKey",
              "type": "bytes32"
            },
            {
              "internalType": "uint256",
              "name": "minExpirationDate",
              "type": "uint256"
            },
            {
              "internalType": "uint64",
              "name": "verifiedAt",
              "type": "uint64"
            }
          ],
          "internalType": "struct KYCRegistry.ZKKYCData",
          "name": "data",
          "type": "tuple"
        }
      ],
      "stateMutability": "view",
      "type": "function"
    },
    {
      "inputs": [
        {
          "internalType": "address",
          "name": "user_",
          "type": "address"
        }
      ],
      "name": "hasAnyVerifiedKYC",
      "outputs": [
        {
          "internalType": "bool",
          "name": "",
          "type": "bool"
        }
      ],
      "stateMutability": "view",
      "type": "function"
    },
    {
      "inputs": [
        {
          "internalType": "address",
          "name": "stateKeeper_",
          "type": "address"
        },
        {
          "internalType": "address",
          "name": "registration_",
          "type": "address"
        },
        {
          "internalType": "address",
          "name": "verifierTD3_",
          "type": "address"
        },
        {
          "internalType": "address",
          "name": "verifierTD1_",
          "type": "address"
        },
        {
          "internalType": "uint256",
          "name": "citizenshipMask_",
          "type": "uint256"
        },
        {
          "internalType": "uint256",
          "name": "selector_",
          "type": "uint256"
        },
        {
          "internalType": "uint256",
          "name": "minKycTerm_",
          "type": "uint256"
        }
      ],
      "name": "initialize",
      "outputs": [],
      "stateMutability": "nonpayable",
      "type": "function"
    },
    {
      "inputs": [],
      "name": "minKycTerm",
      "outputs": [
        {
          "internalType": "uint256",
          "name": "",
          "type": "uint256"
        }
      ],
      "stateMutability": "view",
      "type": "function"
    },
    {
      "inputs": [],
      "name": "owner",
      "outputs": [
        {
          "internalType": "address",
          "name": "",
          "type": "address"
        }
      ],
      "stateMutability": "view",
      "type": "function"
    },
    {
      "inputs": [
        {
          "internalType": "bytes32",
          "name": "",
          "type": "bytes32"
        }
      ],
      "name": "passportKeyToAddress",
      "outputs": [
        {
          "internalType": "address",
          "name": "",
          "type": "address"
        }
      ],
      "stateMutability": "view",
      "type": "function"
    },
    {
      "inputs": [],
      "name": "pendingOwner",
      "outputs": [
        {
          "internalType": "address",
          "name": "",
          "type": "address"
        }
      ],
      "stateMutability": "view",
      "type": "function"
    },
    {
      "inputs": [],
      "name": "proxiableUUID",
      "outputs": [
        {
          "internalType": "bytes32",
          "name": "",
          "type": "bytes32"
        }
      ],
      "stateMutability": "view",
      "type": "function"
    },
    {
      "inputs": [],
      "name": "registration",
      "outputs": [
        {
          "internalType": "contract Registration2",
          "name": "",
          "type": "address"
        }
      ],
      "stateMutability": "view",
      "type": "function"
    },
    {
      "inputs": [],
      "name": "renounceOwnership",
      "outputs": [],
      "stateMutability": "nonpayable",
      "type": "function"
    },
    {
      "inputs": [
        {
          "internalType": "address",
          "name": "user_",
          "type": "address"
        },
        {
          "internalType": "bytes32",
          "name": "passportKey_",
          "type": "bytes32"
        }
      ],
      "name": "revokeZKKYC",
      "outputs": [],
      "stateMutability": "nonpayable",
      "type": "function"
    },
    {
      "inputs": [],
      "name": "selector",
      "outputs": [
        {
          "internalType": "uint256",
          "name": "",
          "type": "uint256"
        }
      ],
      "stateMutability": "view",
      "type": "function"
    },
    {
      "inputs": [],
      "name": "stateKeeper",
      "outputs": [
        {
          "internalType": "contract StateKeeper",
          "name": "",
          "type": "address"
        }
      ],
      "stateMutability": "view",
      "type": "function"
    },
    {
      "inputs": [
        {
          "internalType": "address",
          "name": "newOwner",
          "type": "address"
        }
      ],
      "name": "transferOwnership",
      "outputs": [],
      "stateMutability": "nonpayable",
      "type": "function"
    },
    {
      "inputs": [
        {
          "internalType": "uint256",
          "name": "citizenshipMask_",
          "type": "uint256"
        }
      ],
      "name": "updateCitizenshipMask",
      "outputs": [],
      "stateMutability": "nonpayable",
      "type": "function"
    },
    {
      "inputs": [
        {
          "internalType": "uint256",
          "name": "minKycTerm_",
          "type": "uint256"
        }
      ],
      "name": "updateMinKycTerm",
      "outputs": [],
      "stateMutability": "nonpayable",
      "type": "function"
    },
    {
      "inputs": [
        {
          "internalType": "uint256",
          "name": "selector_",
          "type": "uint256"
        }
      ],
      "name": "updateSelector",
      "outputs": [],
      "stateMutability": "nonpayable",
      "type": "function"
    },
    {
      "inputs": [
        {
          "internalType": "address",
          "name": "stateKeeper_",
          "type": "address"
        }
      ],
      "name": "updateStateKeeper",
      "outputs": [],
      "stateMutability": "nonpayable",
      "type": "function"
    },
    {
      "inputs": [
        {
          "internalType": "address",
          "name": "newImplementation",
          "type": "address"
        },
        {
          "internalType": "bytes",
          "name": "data",
          "type": "bytes"
        }
      ],
      "name": "upgradeToAndCall",
      "outputs": [],
      "stateMutability": "payable",
      "type": "function"
    },
    {
      "inputs": [
        {
          "internalType": "address",
          "name": "",
          "type": "address"
        },
        {
          "internalType": "uint256",
          "name": "",
          "type": "uint256"
        }
      ],
      "name": "userPassports",
      "outputs": [
        {
          "internalType": "bytes32",
          "name": "",
          "type": "bytes32"
        }
      ],
      "stateMutability": "view",
      "type": "function"
    },
    {
      "inputs": [
        {
          "internalType": "address",
          "name": "",
          "type": "address"
        },
        {
          "internalType": "bytes32",
          "name": "",
          "type": "bytes32"
        }
      ],
      "name": "zkKycData",
      "outputs": [
        {
          "internalType": "bytes32",
          "name": "passportKey",
          "type": "bytes32"
        },
        {
          "internalType": "uint256",
          "name": "minExpirationDate",
          "type": "uint256"
        },
        {
          "internalType": "uint64",
          "name": "verifiedAt",
          "type": "uint64"
        }
      ],
      "stateMutability": "view",
      "type": "function"
    }
  ],
  "bytecode": "0x60a060405230608052348015610013575f5ffd5b5061001c610021565b6100d3565b7ff0c57e16840df040f15088dc2f81fe391c3923bec73e23a9662efc9c229c6a00805468010000000000000000900460ff16156100715760405163f92ee8a960e01b815260040160405180910390fd5b80546001600160401b03908116146100d05780546001600160401b0319166001600160401b0390811782556040519081527fc7f505b2f371ae2175ee4913f4499e1f2633a7b5936321eed1cdaeb6115181d29060200160405180910390a15b50565b608051612f296100f95f395f81816115670152818161159001526116be0152612f295ff3fe6080604052600436106101f1575f3560e01c806388f861d411610108578063bdd16bcf1161009d578063e30c39781161006d578063e30c3978146106c3578063e77fc7a4146106d7578063e978aa61146106f6578063ea3d508a14610715578063f2fde38b14610729575f5ffd5b8063bdd16bcf14610632578063c3e6f8f914610666578063c63e19a914610685578063d5050513146106a4575f5ffd5b8063a542c3d7116100d8578063a542c3d71461051e578063abaa309a1461053d578063ad3cb1cc14610583578063ad52ebaa146105c0575f5ffd5b806388f861d4146104985780638da5cb5b146104b757806390572b5b146104cb5780639cfb031e146104ea575f5ffd5b8063537e9e5b116101895780636cb2ac7b116101595780636cb2ac7b1461041d578063715018a6146104325780637786e0be1461044657806379246a981461046557806379ba509714610484575f5ffd5b8063537e9e5b1461032657806359915c4d1461033b5780635bf7c56b1461035a5780635ecfaf2a14610387575f5ffd5b8063443bd1d0116101c4578063443bd1d0146102b35780634c417aaa146102d25780634f1ef286146102f157806352d1902d14610304575f5ffd5b80630b878e69146101f55780630cc912ef14610216578063177dcd601461024b5780633d4f7ed714610277575b5f5ffd5b348015610200575f5ffd5b5061021461020f3660046125cb565b610748565b005b348015610221575f5ffd5b506102356102303660046126d9565b610986565b6040516102429190612756565b60405180910390f35b348015610256575f5ffd5b5061025f61099d565b6040516001600160a01b039091168152602001610242565b348015610282575f5ffd5b507f3844f6f56a171c93056bdfb3ce2525778ef493f53ef90b0283983867a69d2129546001600160a01b031661025f565b3480156102be575f5ffd5b5060045461025f906001600160a01b031681565b3480156102dd575f5ffd5b506102146102ec366004612768565b6109bc565b6102146102ff366004612783565b610a57565b34801561030f575f5ffd5b50610318610a76565b604051908152602001610242565b348015610331575f5ffd5b5061031860015481565b348015610346575f5ffd5b506102146103553660046127b9565b610a91565b348015610365575f5ffd5b50610379610374366004612768565b610b17565b6040516102429291906127d0565b348015610392575f5ffd5b5061040f6103a13660046125cb565b60408051606080820183525f80835260208084018290529284018190526001600160a01b03959095168552600582528285209385529281529281902081519283018252805483526001810154938301939093526002909201546001600160401b031691810182905290151591565b604051610242929190612850565b348015610428575f5ffd5b5061031860025481565b34801561043d575f5ffd5b50610214610cae565b348015610451575f5ffd5b50610318610460366004612768565b610cc1565b348015610470575f5ffd5b5061021461047f366004612883565b610d57565b34801561048f575f5ffd5b50610214610e41565b3480156104a3575f5ffd5b506103186104b23660046125cb565b610e89565b3480156104c2575f5ffd5b5061025f610eb4565b3480156104d6575f5ffd5b506102146104e53660046127b9565b610ee8565b3480156104f5575f5ffd5b5061025f6105043660046127b9565b5f908152600760205260409020546001600160a01b031690565b348015610529575f5ffd5b506102146105383660046127b9565b610f71565b348015610548575f5ffd5b50610573610557366004612768565b6001600160a01b03165f90815260066020526040902054151590565b6040519015158152602001610242565b34801561058e575f5ffd5b506105b3604051806040016040528060058152602001640352e302e360dc1b81525081565b604051610242919061291c565b3480156105cb575f5ffd5b5061060e6105da3660046125cb565b600560209081525f92835260408084209091529082529020805460018201546002909201549091906001600160401b031683565b6040805193845260208401929092526001600160401b031690820152606001610242565b34801561063d575f5ffd5b5061025f61064c3660046127b9565b60076020525f90815260409020546001600160a01b031681565b348015610671575f5ffd5b5060035461025f906001600160a01b031681565b348015610690575f5ffd5b5061021461069f366004612883565b610fab565b3480156106af575f5ffd5b506102356106be3660046126d9565b611004565b3480156106ce575f5ffd5b5061025f611011565b3480156106e2575f5ffd5b506102146106f136600461292e565b611039565b348015610701575f5ffd5b50610235610710366004612768565b611390565b348015610720575f5ffd5b506103185f5481565b348015610734575f5ffd5b50610214610743366004612768565b6113f9565b610750610eb4565b6001600160a01b0316336001600160a01b031614806107775750336001600160a01b038316145b6107dc5760405162461bcd60e51b815260206004820152602b60248201527f4b59433a206f6e6c79206f776e6572206f722061646472657373206f776e657260448201526a2063616e207265766f6b6560a81b60648201526084015b60405180910390fd5b6001600160a01b0382165f9081526005602090815260408083208484529091528120600201546001600160401b0316900361083c57604051632ac650f160e21b8152600481018290526001600160a01b03831660248201526044016107d3565b6001600160a01b0382165f818152600560209081526040808320858452825280832083815560018101849055600201805467ffffffffffffffff191690556007825280832080546001600160a01b031916905592825260069052908120905b815481101561093c57828282815481106108b7576108b76129a0565b905f5260205f2001540361093457815482906108d5906001906129c8565b815481106108e5576108e56129a0565b905f5260205f200154828281548110610900576109006129a0565b905f5260205f2001819055508180548061091c5761091c6129db565b600190038181905f5260205f20015f9055905561093c565b60010161089b565b5081836001600160a01b03167fd5866c24ae7aa535625e9e653096bc036b0275eec3589c16fb6f4da6d20c7e7e4260405161097991815260200190565b60405180910390a3505050565b60605f610993848461147e565b9150505b92915050565b5f5f516020612eb45f395f51905f525b546001600160a01b0316919050565b6109c461152a565b6001600160a01b038116610a0e5760405162461bcd60e51b81526020600482015260116024820152704b59433a207a65726f206164647265737360781b60448201526064016107d3565b600380546001600160a01b0319166001600160a01b0383169081179091556040517f70fc5c063245e45074f1f3dbc5740c2cee758e238b45e695e65e9decca015a08905f90a250565b610a5f61155c565b610a68826115ea565b610a7282826115f2565b5050565b5f610a7f6116b3565b505f516020612ed45f395f51905f5290565b610a9961152a565b805f03610ae85760405162461bcd60e51b815260206004820152601c60248201527f4b59433a2073656c6563746f722063616e6e6f74206265207a65726f0000000060448201526064016107d3565b5f81815560405182917ff481faa96eafc988811d016a96353a54da329402c9f1e0da06f90764f0ff5ade91a250565b60608060065f846001600160a01b03166001600160a01b031681526020019081526020015f20805480602002602001604051908101604052809291908181526020018280548015610b8557602002820191905f5260205f20905b815481526020019060010190808311610b71575b5050505050915081516001600160401b03811115610ba557610ba56125f5565b604051908082528060200260200182016040528015610c0057816020015b610bed60405180606001604052805f81526020015f81526020015f6001600160401b031681525090565b815260200190600190039081610bc35790505b5090505f5b8251811015610ca8576001600160a01b0384165f9081526005602052604081208451909190859084908110610c3c57610c3c6129a0565b60209081029190910181015182528181019290925260409081015f20815160608101835281548152600182015493810193909352600201546001600160401b0316908201528251839083908110610c9557610c956129a0565b6020908102919091010152600101610c05565b50915091565b610cb661152a565b610cbf5f6116fc565b565b604080516060810182524681523060208201526001600160a01b0383168183015290516304b98e1d60e31b81525f9173__$e42d85122f6128c9a7dd8478ad2c48bccc$__916325cc70e891610d18916004016129ef565b602060405180830381865af4158015610d33573d5f5f3e3d5ffd5b505050506040513d601f19601f820116820180604052508101906109979190612a1f565b610d618383611734565b5f610d6c848461147e565b7f3844f6f56a171c93056bdfb3ce2525778ef493f53ef90b0283983867a69d212954604051633a94343960e21b815291925082915f516020612eb45f395f51905f52916001600160a01b03169063ea50d0e490610dcf9087908690600401612a36565b602060405180830381865afa158015610dea573d5f5f3e3d5ffd5b505050506040513d601f19601f82011682018060405250810190610e0e9190612a5a565b610e2f57818460405163221d53ef60e11b81526004016107d3929190612a79565b610e398686611ba9565b505050505050565b3380610e4b611011565b6001600160a01b031614610e7d5760405163118cdaa760e01b81526001600160a01b03821660048201526024016107d3565b610e86816116fc565b50565b6006602052815f5260405f208181548110610ea2575f80fd5b905f5260205f20015f91509150505481565b5f807f9016d09d72d40fdae2fd8ceac6b6234c7706214fd39c1cd1e609a0528c1993005b546001600160a01b031692915050565b610ef061152a565b805f03610f3f5760405162461bcd60e51b815260206004820152601e60248201527f4b59433a206d696e4b79635465726d2063616e6e6f74206265207a65726f000060448201526064016107d3565b600281905560405181907fe670eac3ad83725c75c3fcfabc94912ec0e39b88d3292729d6f3885f154a68ba905f90a250565b610f7961152a565b600181905560405181907f28b8baebb44ddfb02608bab291fc0cd0901379f9883c0b04e7179ff53af0a005905f90a250565b610fb58383611734565b5f610fc08484611d33565b5f516020612eb45f395f51905f528054604051633a94343960e21b815292935083926001600160a01b039091169063ea50d0e490610dcf9087908690600401612a36565b60605f6109938484611d33565b5f807f237e158222e3e6968b72b9db0d8043aacf074ad9f650f0d1606b4d82ee432c00610ed8565b7ff0c57e16840df040f15088dc2f81fe391c3923bec73e23a9662efc9c229c6a008054600160401b810460ff1615906001600160401b03165f8115801561107d5750825b90505f826001600160401b031660011480156110985750303b155b9050811580156110a6575080155b156110c45760405163f92ee8a960e01b815260040160405180910390fd5b845467ffffffffffffffff1916600117855583156110ee57845460ff60401b1916600160401b1785555b6110f88a8a611df1565b611100611e52565b61110933611e5a565b611111611e6b565b6001600160a01b038c166111675760405162461bcd60e51b815260206004820152601d60248201527f4b59433a207a65726f2073746174654b6565706572206164647265737300000060448201526064016107d3565b6001600160a01b038b166111bd5760405162461bcd60e51b815260206004820152601e60248201527f4b59433a207a65726f20726567697374726174696f6e2061646472657373000060448201526064016107d3565b865f0361120c5760405162461bcd60e51b815260206004820152601c60248201527f4b59433a2073656c6563746f722063616e6e6f74206265207a65726f0000000060448201526064016107d3565b855f0361125b5760405162461bcd60e51b815260206004820152601e60248201527f4b59433a206d696e4b79635465726d2063616e6e6f74206265207a65726f000060448201526064016107d3565b600380546001600160a01b03808f166001600160a01b0319928316811790935560048054918f169190921617905560018990555f88815560028890556040517f70fc5c063245e45074f1f3dbc5740c2cee758e238b45e695e65e9decca015a089190a260405188907f28b8baebb44ddfb02608bab291fc0cd0901379f9883c0b04e7179ff53af0a005905f90a260405187907ff481faa96eafc988811d016a96353a54da329402c9f1e0da06f90764f0ff5ade905f90a260405186907fe670eac3ad83725c75c3fcfabc94912ec0e39b88d3292729d6f3885f154a68ba905f90a2831561138257845460ff60401b19168555604051600181527fc7f505b2f371ae2175ee4913f4499e1f2633a7b5936321eed1cdaeb6115181d29060200160405180910390a15b505050505050505050505050565b6001600160a01b0381165f908152600660209081526040918290208054835181840281018401909452808452606093928301828280156113ed57602002820191905f5260205f20905b8154815260200190600101908083116113d9575b50505050509050919050565b61140161152a565b7f237e158222e3e6968b72b9db0d8043aacf074ad9f650f0d1606b4d82ee432c0080546001600160a01b0319166001600160a01b0383169081178255611445610eb4565b6001600160a01b03167f38d16b8cac22d99fc7c124b9cd0de2d3fa1faef420bfe791d8c362d765e2270060405160405180910390a35050565b5f5f5f5f5f858060200190518101906114979190612a9d565b93509350935093506114aa5f545f611e7b565b94505f6114b685610cc1565b6101608701819052610180870185905290506114d6868962015180611efa565b5f61020087018190526102208701526530303030303061028087018190526102a08701525f6102408701819052610260870152653030303030306102c08701526102e086018290525b505050505092915050565b33611533610eb4565b6001600160a01b031614610cbf5760405163118cdaa760e01b81523360048201526024016107d3565b306001600160a01b037f00000000000000000000000000000000000000000000000000000000000000001614806115cc57507f00000000000000000000000000000000000000000000000000000000000000006001600160a01b03166115c0611f42565b6001600160a01b031614155b15610cbf5760405163703e46dd60e11b815260040160405180910390fd5b610e8661152a565b816001600160a01b03166352d1902d6040518163ffffffff1660e01b8152600401602060405180830381865afa92505050801561164c575060408051601f3d908101601f1916820190925261164991810190612a1f565b60015b61167457604051634c9c8ce360e01b81526001600160a01b03831660048201526024016107d3565b5f516020612ed45f395f51905f5281146116a457604051632a87526960e21b8152600481018290526024016107d3565b6116ae8383611f56565b505050565b306001600160a01b037f00000000000000000000000000000000000000000000000000000000000000001614610cbf5760405163703e46dd60e11b815260040160405180910390fd5b7f237e158222e3e6968b72b9db0d8043aacf074ad9f650f0d1606b4d82ee432c0080546001600160a01b0319168155610a7282611fab565b5f5f5f5f5f5f5f5f888060200190518101906117509190612b26565b975097509750975097509750975097505f61176a8b61201b565b90505f6117768761201b565b90505f600254836117879190612c48565b9050808210156117b45760405163328968d360e01b815260048101839052602481018290526044016107d3565b60035460405163069fab6360e41b8152600481018b90525f916001600160a01b0316906369fab63090602401602060405180830381865afa1580156117fb573d5f5f3e3d5ffd5b505050506040513d601f19601f8201168201806040525081019061181f9190612c76565b80519091506001600160401b03165f0361198e575f8551116118a95760405162461bcd60e51b815260206004820152603f60248201527f4b59433a2070617373706f7274206e6f74207265676973746572656420616e6460448201527f206e6f20726567697374726174696f6e2070726f6f662070726f76696465640060648201526084016107d3565b60045f9054906101000a90046001600160a01b03166001600160a01b0316635a0f28b1898d5f1c8a8a8a6040518663ffffffff1660e01b81526004016118f3959493929190612cbf565b5f604051808303815f87803b15801561190a575f5ffd5b505af115801561191c573d5f5f3e3d5ffd5b505060035460405163069fab6360e41b8152600481018e90526001600160a01b0390911692506369fab6309150602401602060405180830381865afa158015611967573d5f5f3e3d5ffd5b505050506040513d601f19601f8201168201806040525081019061198b9190612c76565b90505b80516001600160401b03166119ef5760405162461bcd60e51b815260206004820152602160248201527f4b59433a2070617373706f727420726567697374726174696f6e206661696c656044820152601960fa1b60648201526084016107d3565b60035460405163da45b38360e01b8152600481018d90525f916001600160a01b03169063da45b383906024016040805180830381865afa158015611a35573d5f5f3e3d5ffd5b505050506040513d601f19601f82011682018060405250810190611a599190612d3f565b80519091508b14611abc5760405162461bcd60e51b815260206004820152602760248201527f4b59433a2073657373696f6e206e6f7420626f756e6420746f20746869732070604482015266185cdcdc1bdc9d60ca1b60648201526084016107d3565b5f8b8152600760205260409020546001600160a01b03168015801590611af457508d6001600160a01b0316816001600160a01b031614155b15611b245760405163098bfbfb60e41b8152600481018d90526001600160a01b03821660248201526044016107d3565b6001600160a01b038e163314611b975760405162461bcd60e51b815260206004820152603260248201527f4b59433a206f6e6c792061646472657373206f776e65722063616e20616464206044820152711bdc881d5c19185d19481c185cdcdc1bdc9d60721b60648201526084016107d3565b50505050505050505050505050505050565b5f5f5f83806020019051810190611bc09190612a9d565b6001600160a01b0384165f9081526005602090815260408083208584529091529020600201549396509094509250506001600160401b0316158015611c2e576001600160a01b0384165f90815260066020908152604082208054600181018255908352912001839055611c74565b8283856001600160a01b03167f0c575857838d1be900faacbf5d1976bc279c1d7ac589fc78e615be2b6ad6bca942604051611c6b91815260200190565b60405180910390a45b604080516060810182528481526020808201858152426001600160401b038181168587019081526001600160a01b038b165f818152600587528881208c82528752888120975188559451600188015590516002909601805467ffffffffffffffff191696909216959095179055600783529084902080546001600160a01b03191684179055925192835285927f948a8f56069f9c4b18c53af7f4d36d16a8e7ac5aad26dd6f93df6895a0b567a7910160405180910390a3505050505050565b5f5f5f5f5f85806020019051810190611d4c9190612a9d565b9350935093509350611d5f5f545f61214c565b94505f611d6b85610cc1565b61014087018190526001600160a01b03861661016088015290506101808601849052611d9b8689620151806121cb565b5f6101e087018190526102008701526530303030303061026087018190526102808701525f61022087018190526102408701526102a08601829052653030303030306102c08701526001546102e087015261151f565b611df9612213565b5f516020612eb45f395f51905f5280546001600160a01b039384166001600160a01b0319918216179091557f3844f6f56a171c93056bdfb3ce2525778ef493f53ef90b0283983867a69d21298054929093169116179055565b610cbf612213565b611e62612213565b610e868161225c565b611e73612213565b610cbf61228d565b60408051601780825261030082019092525f91829190602082016102e080368337019050509050809150826020830152836101c0830152653030303030306101e083015265303030303030610280830152653030303030306102a0830152653030303030306102c0830152653030303030306102e08301525092915050565b5f611f048361201b565b9050611f1081836122bb565b611f36576040516310b99cc360e11b8152600481018290524260248201526044016107d3565b50506101e09190910152565b5f5f516020612ed45f395f51905f526109ad565b611f5f826122e2565b6040516001600160a01b038316907fbc7cd75a20ee27fd9adebab32041f755214dbc6bffa90cc0225b39da2e5c2d3b905f90a2805115611fa3576116ae8282612345565b610a726123b7565b7f9016d09d72d40fdae2fd8ceac6b6234c7706214fd39c1cd1e609a0528c19930080546001600160a01b031981166001600160a01b03848116918217845560405192169182907f8be0079c531659141344cd1fd0a4f28419497f9722a3daafe3b4186f6b6457e0905f90a3505050565b604080516003808252608082019092525f91829190602082016060803683370190505090505f5b60068110156120df575f6030600161205b8460066129c8565b61206591906129c8565b612070906008612d92565b86901c61207d9190612da9565b60ff16905061208d600283612dd6565b1561209857806120a3565b6120a381600a612d92565b836120af600285612de9565b815181106120bf576120bf6129a0565b602002602001018181516120d39190612c48565b90525050600101612042565b50612145815f815181106120f5576120f56129a0565b60200260200101516107d061210a9190612c48565b8260018151811061211d5761211d6129a0565b602002602001015183600281518110612138576121386129a0565b60200260200101516123d6565b9392505050565b60408051601780825261030082019092525f91829190602082016102e080368337019050509050809150826020830152836101a0830152653030303030306101c08301526530303030303061026083015265303030303030610280830152653030303030306102a0830152653030303030306102c08301525092915050565b5f6121d58361201b565b90506121e181836122bb565b612207576040516310b99cc360e11b8152600481018290524260248201526044016107d3565b50506101c09190910152565b7ff0c57e16840df040f15088dc2f81fe391c3923bec73e23a9662efc9c229c6a0054600160401b900460ff16610cbf57604051631afcd79f60e31b815260040160405180910390fd5b612264612213565b6001600160a01b038116610e7d57604051631e4fbdf760e01b81525f60048201526024016107d3565b612295612213565b60017f9b779b17422d0df92223018b32b4d1fa46e071723d6817e2486d003becc55f0055565b5f6122c682426129c8565b8311801561214557506122d98242612c48565b83109392505050565b806001600160a01b03163b5f0361231757604051634c9c8ce360e01b81526001600160a01b03821660048201526024016107d3565b5f516020612ed45f395f51905f5280546001600160a01b0319166001600160a01b0392909216919091179055565b60605f5f846001600160a01b0316846040516123619190612dfc565b5f60405180830381855af49150503d805f8114612399576040519150601f19603f3d011682016040523d82523d5f602084013e61239e565b606091505b50915091506123ae8583836123f8565b95945050505050565b3415610cbf5760405163b398979f60e01b815260040160405180910390fd5b5f620151806123e6858585612454565b6123f09190612d92565b949350505050565b60608261240d576124088261258e565b612145565b815115801561242457506001600160a01b0384163b155b1561244d57604051639996b31560e01b81526001600160a01b03851660048201526024016107d3565b5092915050565b5f6107b2841015612463575f5ffd5b8383835f62253d8c60046064600c61247c600e88612e12565b6124869190612e31565b61249288611324612e5d565b61249c9190612e5d565b6124a69190612e31565b6124b1906003612e84565b6124bb9190612e31565b600c806124c9600e88612e12565b6124d39190612e31565b6124de90600c612e84565b6124e9600288612e12565b6124f39190612e12565b6124ff9061016f612e84565b6125099190612e31565b6004600c612518600e89612e12565b6125229190612e31565b61252e896112c0612e5d565b6125389190612e5d565b612544906105b5612e84565b61254e9190612e31565b61255a617d4b87612e12565b6125649190612e5d565b61256e9190612e5d565b6125789190612e12565b6125829190612e12565b98975050505050505050565b80511561259e5780518082602001fd5b60405163d6bda27560e01b815260040160405180910390fd5b6001600160a01b0381168114610e86575f5ffd5b5f5f604083850312156125dc575f5ffd5b82356125e7816125b7565b946020939093013593505050565b634e487b7160e01b5f52604160045260245ffd5b60405160a081016001600160401b038111828210171561262b5761262b6125f5565b60405290565b604051601f8201601f191681016001600160401b0381118282101715612659576126596125f5565b604052919050565b5f6001600160401b03821115612679576126796125f5565b50601f01601f191660200190565b5f82601f830112612696575f5ffd5b81356126a96126a482612661565b612631565b8181528460208386010111156126bd575f5ffd5b816020850160208301375f918101602001919091529392505050565b5f5f604083850312156126ea575f5ffd5b8235915060208301356001600160401b03811115612706575f5ffd5b61271285828601612687565b9150509250929050565b5f8151808452602084019350602083015f5b8281101561274c57815186526020958601959091019060010161272e565b5093949350505050565b602081525f612145602083018461271c565b5f60208284031215612778575f5ffd5b8135612145816125b7565b5f5f60408385031215612794575f5ffd5b823561279f816125b7565b915060208301356001600160401b03811115612706575f5ffd5b5f602082840312156127c9575f5ffd5b5035919050565b604081525f6127e2604083018561271c565b82810360208401528084518083526020830191506020860192505f5b818110156128445761282e83855180518252602080820151908301526040908101516001600160401b0316910152565b60209390930192606092909201916001016127fe565b50909695505050505050565b821515815260808101612145602083018480518252602080820151908301526040908101516001600160401b0316910152565b5f5f5f60608486031215612895575f5ffd5b8335925060208401356001600160401b038111156128b1575f5ffd5b6128bd86828701612687565b92505060408401356001600160401b038111156128d8575f5ffd5b6128e486828701612687565b9150509250925092565b5f81518084528060208401602086015e5f602082860101526020601f19601f83011685010191505092915050565b602081525f61214560208301846128ee565b5f5f5f5f5f5f5f60e0888a031215612944575f5ffd5b873561294f816125b7565b9650602088013561295f816125b7565b9550604088013561296f816125b7565b9450606088013561297f816125b7565b9699959850939660808101359560a0820135955060c0909101359350915050565b634e487b7160e01b5f52603260045260245ffd5b634e487b7160e01b5f52601160045260245ffd5b81810381811115610997576109976129b4565b634e487b7160e01b5f52603160045260245ffd5b6060810181835f5b6003811015612a165781518352602092830192909101906001016129f7565b50505092915050565b5f60208284031215612a2f575f5ffd5b5051919050565b604081525f612a4860408301856128ee565b82810360208401526123ae818561271c565b5f60208284031215612a6a575f5ffd5b81518015158114612145575f5ffd5b604081525f612a8b604083018561271c565b82810360208401526123ae81856128ee565b5f5f5f5f60808587031215612ab0575f5ffd5b8451612abb816125b7565b60208601516040870151606090970151919890975090945092505050565b5f82601f830112612ae8575f5ffd5b8151612af66126a482612661565b818152846020838601011115612b0a575f5ffd5b8160208501602083015e5f918101602001919091529392505050565b5f5f5f5f5f5f5f5f610100898b031215612b3e575f5ffd5b8851612b49816125b7565b60208a015160408b015160608c015160808d015160a08e015160c08f0151959d50939b509199509750955093506001600160401b03811115612b89575f5ffd5b890160a0818c031215612b9a575f5ffd5b612ba2612609565b815181526020808301519082015260408201516001600160401b03811115612bc8575f5ffd5b612bd48d828501612ad9565b60408301525060608201516001600160401b03811115612bf2575f5ffd5b612bfe8d828501612ad9565b6060830152506080918201519181019190915260e08a01519092506001600160401b03811115612c2c575f5ffd5b612c388b828c01612ad9565b9150509295985092959890939650565b80820180821115610997576109976129b4565b80516001600160401b0381168114612c71575f5ffd5b919050565b5f6020828403128015612c87575f5ffd5b50604051602081016001600160401b0381118282101715612caa57612caa6125f5565b604052612cb683612c5b565b81529392505050565b85815284602082015283604082015260a06060820152825160a0820152602083015160c08201525f604084015160a060e0840152612d016101408401826128ee565b90506060850151609f1984830301610100850152612d1f82826128ee565b9150506080850151610120840152828103608084015261258281856128ee565b5f6040828403128015612d50575f5ffd5b50604080519081016001600160401b0381118282101715612d7357612d736125f5565b60405282518152612d8660208401612c5b565b60208201529392505050565b8082028115828204841417610997576109976129b4565b60ff8281168282160390811115610997576109976129b4565b634e487b7160e01b5f52601260045260245ffd5b5f82612de457612de4612dc2565b500690565b5f82612df757612df7612dc2565b500490565b5f82518060208501845e5f920191825250919050565b8181035f83128015838313168383128216171561244d5761244d6129b4565b5f82612e3f57612e3f612dc2565b600160ff1b82145f1984141615612e5857612e586129b4565b500590565b8082018281125f831280158216821582161715612e7c57612e7c6129b4565b505092915050565b8082025f8212600160ff1b84141615612e9f57612e9f6129b4565b8181058314821517610997576109976129b456fe3844f6f56a171c93056bdfb3ce2525778ef493f53ef90b0283983867a69d2128360894a13ba1a3210667c828492db98dca3e2076cc3735a920a3ca505d382bbca264697066735822122048b28e132e19b38d7ec69da3a8044d160b88011242630ef94b5c88180a4c72f864736f6c634300081c0033",
  "linkReferences": {
    "contracts/libraries/Poseidon.sol": {
      "PoseidonUnit3L": [
        {
          "length": 20,
          "start": 3563
        }
      ]
    }
  },
  "deployedLinkReferences": {
    "contracts/libraries/Poseidon.sol": {
      "PoseidonUnit3L": [
        {
          "length": 20,
          "start": 3314
        }
      ]
    }
  }
}